:020000041000EA
:10000000002000082B0100100D0000008D010010E1
:1000100000000000000000000000000000000000E0
:100020000000000000000000000000008901001036
:10003000000000000000000089010010890100108C
:100040008901001089010010890100108901001048
:100050008901001089010010890100108901001038
:100060008901001089010010890100108901001028
:100070008901001089010010890100108901001018
:100080008901001089010010890100108901001008
:1000900089010010890100108901001089010010F8
:1000A00089010010890100108901001089010010E8
:1000B00089010010890100108901001089010010D8
:1000C00010B5064C2378002B07D1054B002B02D02E
:1000D000044800E000BF0123237010BDF8030008AE
:1000E00000000000DC150010044B10B5002B03D0FD
:1000F0000349044800E000BF10BDC04600000000F6
:10010000FC030008DC1500100230800803D0013029
:100110000238FCD1C046C0467047EFF3108072B67B
:10012000704780F3108870477047FFF7FDFF72B685
:100130000F4C104DAC4209DA21686268A368043B99
:1001400002DBC858D050FAE70C34F3E70A490B4AEF
:100150000020521A02DD043A8850FCDC08480949A4
:100160000860BFF34F8F00F03FFF00F0EFFEFEE7A7
:10017000E815001000160010F80300081406000827
:100180000000000808ED00E0FEE7FEE700B50420EF
:100190007146084202D0EFF3098001E0EFF30880D6
:1001A000043000F0D3FCFEE7014B18607047C046F6
:1001B00010060008044B1B681A00BA3212881B6A2A
:1001C0005043C0187047C046100600081D4B9842A7
:1001D0000FD010D840282FD005D8002830D01028B4
:1001E00028D019481EE0802828D080235B00984240
:1001F000F7D1144816E0154B984214D008D8A02324
:100200001B0698421CD0124B9842EAD1A0200BE06A
:10021000104B98420AD0104B984209D00F4B98428D
:10022000DFD10F487047A420C003FBE70D48F9E772
:100230000D48F7E70D48F5E70D48F3E70D48F1E7FE
:100240000020EFE706005200FF005200010000F01E
:10025000090000A0040000F0050000F0030000F019
:100260000100520002005200030052000100500041
:10027000020050000500520010B50020FFF79AFF61
:100280000A4B1C682300BC331B68C0180368002B92
:100290000ADB074B1868FFF799FF012263689A6031
:1002A0009A68002AFCD110BD0248FCE7100600083D
:1002B00014040008020050000D4B10B5186000280F
:1002C00004D0FE235B42038000234380094B1B685C
:1002D0001A0050321278002A08D051331B78002BB4
:1002E00004D002220449002000F0E0F810BDC0460E
:1002F00024040008100600084501000810B5024853
:10030000FFF7DAFF10BDC046B8030008064B1B68B4
:10031000BC331B68C3181B68002B03DA89B2416029
:10032000002070470148FCE71006000801008A0021
:100330000368002B04DA89B2C26081600020704734
:100340000048FCE701008A00064B1B68BC331B68B1
:10035000C3181B68002B03DAC36800200B607047CA
:100360000148FCE71006000801008A00024B1A68E9
:10037000002A00D11860704728040008F0B52C242A
:100380006043154C1F0024681D0A2018FF242540D7
:100390002740124C1B0C26680760346A4560836056
:1003A000BA36368877433F1907612F0080376D01D1
:1003B0007F01E71964190A4D47611F043B43641923
:1003C000236000238361059BC2610162002B01D081
:1003D0001B888381F0BDC046280400081006000871
:1003E00008100000F0B5836885B002AD2B80154B76
:1003F00002681B68066A1B8F476A9B18AB704368CC
:100400000095826AC16A040003930369C068FFF71C
:10041000B5FF00213B000A0000913000FFF7AEFF5E
:10042000216B280000F046FB0022AB5E002B06DBB0
:100430001F2213401E3A9A401300034A136005B06E
:10044000F0BDC0461006000800E100E0F7B52C251D
:10045000134C684326686943341825690193711861
:10046000002D19D08869002818D12E68002E15DAC1
:100470006768012426004B689E40B44613689EB20C
:1004800063461B041E431660EA608C61BC40019BFE
:10049000A4B24B62AC60FEBD0248FCE70248FAE73A
:1004A0002804000804028A0007028A002C23434320
:1004B00006480068C018C369934204D9036A002043
:1004C0009200D15070470248FCE7C046280400085B
:1004D0000A028A0073B5002642690400D5680196B5
:1004E0002B0CB34221D01B0413601368194B006915
:1004F0001B68BC331B68C3181B68B34215DA01A91B
:10050000FFF722FFB0420CD10198E26903681E0C8C
:10051000DBB29A4205D9226A9B009B58002B00D07F
:10052000984731002069FFF7F1FEADB2002D09D0E8
:1005300063691D6000251B68636AAB4205D098475C
:100540006562A56163691B6873BDA36A002BF8D05F
:100550009847F6E7100600082C2310B54343034ADA
:100560001068C018FFF7B6FF10BDC0462804000889
:10057000F8B5194B0F001B681A003332127882420B
:1005800027D9002925D01F250A68154021D1190037
:10059000BA310C88114E60431C6AD2080419290034
:1005A0007868346000F084FF29002000FFF7AEFE79
:1005B0003A0029003068FFF7BBFE041E07D1010096
:1005C0003068FFF7A3FE03002000002B00D0044892
:1005D000F8BD0448FCE7C046100600082C040008DB
:1005E00001018A0003018A0010B5002A0DD10029FB
:1005F00014D10B4B1A681300BA331B885843136A83
:10060000C018084B1860080010BD002906D0064B22
:10061000196019005A60FFF7ABFFF5E70348F3E7ED
:10062000100600082C040008BC03000803018A001F
:10063000F7B5184F04003B680191DE6833688342C8
:1006400026D90025A94202D1FFF767FD05003868C9
:100650000368002B1ADA1F22012322409340640909
:100660007268A4001419226813420DD09A432260C4
:1006700000240021FFF74AFE019B002B02D1280035
:10068000FFF74FFD2000FEBD034CF2E7034CF3E7FC
:10069000034CF7E72C0400080201880003018800DE
:1006A00004018A000A4B1B68DB681A6882420DD974
:1006B00059681F23420918401E3B8340920050583E
:1006C0001840431E9841034BC01870470248FCE78E
:1006D0002C0400080001880004018A00054B1B68F7
:1006E0001A0088321B6812689B181868000AC0B28A
:1006F0007047C04610060008044B1B681A00883279
:100700001B6812689B181868000E704710060008D6
:10071000024B18694007C00F7047C04600002740D1
:10072000A6220549D2008B580220DB439B0702D04A
:1007300001238858184070470000264010B5FFF785
:10074000EFFF0023022801D1014B1B68180010BDE8
:1007500034040008094A83009B18D022920098585C
:1007600007221040042807D1C022920098581F2366
:1007700003408020400018437047C04600002640D8
:1007800010B5FFF7E7FF03281CD005D8012816D0C5
:1007900023D9FFF7D3FF10BD1223FF33984213D0A4
:1007A0001423FF33984215D0033B984210D10C4AD2
:1007B0000C4BD358002B0BDA80200002EBE70A4BDE
:1007C0001868E8E7094BFBE7FFF7A2FF0028F3D121
:1007D0000020E0E7024A064BEBE70648DBE7C046AD
:1007E000000026400C050000300400088C040008BE
:1007F0003C05000000127A00B023154ADB00D358F4
:1008000010B59903DB01DB0F890BC371114B01603C
:10081000D3580F24D904DB01DB0D0381B123DB00A6
:10082000D358C90C818019002140817219092140D7
:10083000C172D9029B009B0F8373074BC90CD3581D
:1008400081815A05DB01520FDB0D8271038210BDDD
:1008500000002640840500008C05000010B5104BF8
:10086000421E1B683F331B78934216D97F221F24F8
:100870008030FF300B4B8000C3581A400A701A0CAE
:100880002240180A8A701A012040E2404870002075
:100890009B009B0FCA700B7110BD0348FCE7C0465C
:1008A000100600080000264001004A00F0B589B09B
:1008B00003AC14220021200000F0FAFD2000FFF715
:1008C0009BFFB0231A4ADB00D25800239A4203DA76
:1008D000A37B023B5A1E9341E57900266A1E95418F
:1008E0000135B34221D0A488B4421ED0039B30000E
:1008F0000193FFF745FF2A00330007003100200075
:1009000000F0C0FC0C0005003300019A31003800F3
:1009100000F0B8FCE6076A083243630880185941C2
:100920002A00230000F08EFC0600300009B0F0BD64
:1009300000002640F0B50026244B85B01B68070058
:100940003F331B78B3423ED0B0423CD083423AD3CF
:100950000522310002A800F0ABFD02A93800FFF724
:100960007DFF3B008033FF33194A9B009B58B34205
:1009700029DA02AB1B79022B25D002AB5C78B4429A
:1009800021D09D78B5421ED01B7838000193FFF727
:10099000F7FE2A00330007003100200000F072FC4F
:1009A0000C0005003300019A3100380000F06AFCA9
:1009B000E6076A0832436308801859412A00230079
:1009C00000F040FC0600300005B0F0BD1006000845
:1009D0000000264010B5041E04D1FFF767FF002871
:1009E00006D008E0064B1B683F331B78834203D2D6
:1009F0002000FFF7C5FE10BDFFF79CFFEFE7C046E4
:100A000010060008E02210B50124094B8000920076
:100A1000C018835880589B069B0F9C400F2318409A
:100A2000FFF7D8FF63081818210000F07FFB10BD06
:100A300000002640144B30B51A68072413002C33ED
:100A40001B781F2B15D883081D00A5432C1E0FD122
:100A500003342040A040814012689B002032D3180C
:100A60000A00FF2181401C6862401140614019600A
:100A700030BD802320401B06184380239B01126851
:100A8000C91889008850F3E710060008064B9A68D9
:100A90000300064810339B00824202D198589950B7
:100AA0007047034AD058FBE700ED00E00000000863
:100AB00000000010F8B506000D0000283AD0002311
:100AC000C05E002828DBB178FFF7B4FF0024FF22C6
:100AD000032794460023F05E716883B21F40FF0035
:100AE0006646BA4089013140D243B940002815DB3F
:100AF000114E83089B009B19C026B6009F593A40AF
:100B0000114399510D4B9A680D4B9A4202D129001D
:100B1000FFF7BCFF2000F8BD0A4CD8E70F26334092
:100B2000083B064E9B089B009B19DE69324011432F
:100B3000D961E7E7034CEDE700E100E000ED00E0FC
:100B40000000000801005600FEE7000002680A4BA2
:100B500010B51A6042685A6082689A60C268DA60AA
:100B600002691A6142695A6182699A61C269DA61ED
:100B7000FFF7EAFF10BDC046D8030008B0235B05AD
:100B80005A782120002A01D05878C0B27047B0238B
:100B90005B059A89002A02D0988980B2704780202C
:100BA0004000FBE77FB5274B86000D00F458042971
:100BB00001D0012927D100200FE0A3682B420BD1DF
:100BC000E36829001A685B6802920193039302A804
:100BD000236898471C4B1C606469002C0BD01B4B8E
:100BE0009842EAD1012DE8D1174B18481A68184BE2
:100BF0009A5104B070BD012DFBD1144B9842F3D033
:100C0000134B9C51F5E7022906D10F4B1B68181EA8
:100C1000EFD01C6903E01C006369002BFBD10020AE
:100C2000002CE6D0A3682B4209D1E36829001A689A
:100C30005B6802920193039302A823689847246992
:100C4000EEE7C0467804000874040008FF00420084
:100C5000600400081A4B1B68190088311A6809687B
:100C600051180968016219008C310968521812681C
:100C700042621A0046321278002A1FD09A68E03287
:100C80001268D2061AD5F222DB68D2019A580260A5
:100C9000F022D2019A5842600A4A9A5882600A4A5F
:100CA0009A58C260094A9A580261094A9A584261A0
:100CB000084A9A588261084A9B58C3617047C046E7
:100CC0001006000804780000087800000C78000086
:100CD0001078000014780000187800001A4B1B6888
:100CE0001A008832196812688A18016A11601A009D
:100CF0008C32196812688A18416A11601A004632EB
:100D00001278002A1ED09A68E0321268D20619D5ED
:100D1000F0224168DB68D201995081680B4A9950F2
:100D2000C1680B4A995001690A4A995041690A4AB7
:100D300099508169094A9950C169094A99500168D5
:100D4000E83299507047C046100600080478000049
:100D5000087800000C78000010780000147800007B
:100D600018780000F7B50700FFF708FF664D06008A
:100D70006B68002B00D07DE0FFF7CFF96B68009027
:100D8000002B00D089E0614C22681300BA33198827
:100D900007234B43126A9B181A68002AFCDADB68A7
:100DA000DA0021D51B0F1B0759480193FFF752FFAB
:100DB0005849212E00D075E0226890201300883316
:100DC0001C68136800011C1923680B40034323604F
:100DD00013008C3312681B68D3181A68114008433B
:100DE00018604B4B019A13438022484E920531689C
:100DF00013430A00BA321088072200244243096ACA
:100E00005218D36054605368FFF7C1FE80235B0023
:100E100098425DD1380000F05FFB32681300BA33AE
:100E2000198807234B43126A9B181A68002AFCDAB8
:100E3000DF68FB0003D538010009FFF74FFF364B91
:100E400032681F401300BA33198807234B43126AD4
:100E500000989B180022DF605A60FFF762F9002CAF
:100E60000FD16B68002B03D008210120FFF79AFEF9
:100E70002000FEBD01210800FFF794FE041E00D1F2
:100E80007AE76B68002B03D002210120FFF78AFE6E
:100E9000224B9C42ECD0224CEAE704210120FFF7D0
:100EA00081FE70E720688022030088331C68036895
:100EB00052001C1923680B401343236003008C333A
:100EC00000681B68C318186801400A431A6088E765
:100ED00033681A00BC32196A126852181168002966
:100EE00010DBBA331B889A181368002B0ADB042323
:100EF0000C4A11690B431361012F01D030BF8CE7FD
:100F000020BF8AE7054C88E778040008100600082F
:100F100038040008FF00FFFFFFFFFFDF050042006D
:100F2000FF00420000ED00E0C02280200649520090
:100F30008B58C0059B009B0803438B508023885827
:100F40001B0603438B5070470000264010B562B665
:100F5000034800F0C1F80020FFF704FFFBE7C0469C
:100F60000020001010B50020FFF7F6FA10BD704702
:100F700010B50020FFF746FD041E25D0134B186066
:100F8000FFF7BAFB411C200000F0D0F8104B040022
:100F90001860FFF7A3FB411C200000F0C7F80D4BC1
:100FA000441E18600C49200000F0C0F8FA210B4BD9
:100FB000013018708900200000F0B8F8084B0130AB
:100FC0001860084BC003186010BDC046C40000087C
:100FD000C8000008C000000840420F00D40000080C
:100FE000D0000008CC00000810B52148FFF7DCF85D
:100FF000B022E02130201F4CD200A35889005B00B2
:101000005B08A35063588343635080235B04A35061
:10101000194B1A4AE250A02204339201E250FF22F7
:10102000174BE250FFF780FFC02201215200A35866
:101030008B43A350FFF79BFFFFF79AFF114B032051
:101040001A681300BA33198807234B43126A8021A8
:101050009B180022DA605A600B4AFFF7C5FA0B486A
:10106000FFF784F90A48FFF7BDF9FFF747F910BD0C
:10107000E814001000002640840500000100020072
:101080008C05000010060008C40300089004000846
:10109000A8150010024BD86F032318407047C046B4
:1010A0000400214010B5FFF738F80749074ACB6F15
:1010B0001A40074B1343CB67102306490A681A42AC
:1010C000FCD0FFF72EF810BD04002140FCFF00000B
:1010D0000100FA058800214070B50F4C0600FFF7AB
:1010E0001CF8E36F0500DB439B0701D1FFF7DAFF34
:1010F000B0230A4A9B00D650E36F094A09491A40B7
:10110000094B1343E36710230A681A42FCD02800F6
:10111000FFF707F870BDC0460400214000002140E1
:10112000FCFF0000880021400300FA05002243086C
:101130008B4274D303098B425FD3030A8B4244D39F
:10114000030B8B4228D3030C8B420DD3FF220902E1
:1011500012BA030C8B4202D31212090265D0030BA0
:101160008B4219D300E0090AC30B8B4201D3CB0396
:10117000C01A5241830B8B4201D38B03C01A5241D8
:10118000430B8B4201D34B03C01A5241030B8B42DA
:1011900001D30B03C01A5241C30A8B4201D3CB02C5
:1011A000C01A5241830A8B4201D38B02C01A5241AA
:1011B000430A8B4201D34B02C01A5241030A8B42AD
:1011C00001D30B02C01A5241CDD2C3098B4201D3C5
:1011D000CB01C01A524183098B4201D38B01C01A43
:1011E000524143098B4201D34B01C01A52410309BA
:1011F0008B4201D30B01C01A5241C3088B4201D369
:10120000CB00C01A524183088B4201D38B00C01A15
:10121000524143088B4201D34B00C01A5241411A3C
:1012200000D20146524110467047FFE701B5002049
:1012300000F006F802BDC0460029F7D076E77047F7
:101240007047C046002B11D1002A0FD1002900D1D0
:10125000002802D00021C943081C07B4024802A19B
:101260004018029003BDC046D9FFFFFF03B4684693
:1012700001B5029800F030F8019B9E4602B00CBC0C
:101280007047C046F0B5CE46474615042D0C2E00DB
:1012900080B50704140C3F0C9946030C7E435D4354
:1012A000674363437F19340CE4199C46A54203D974
:1012B00080235B029846C4444B4643435143250C6C
:1012C00036046544360C2404A4195B19591820000F
:1012D0000CBC90469946F0BDF0B54F464646D64602
:1012E000C0B5040082B00D00914698468B422FD8BD
:1012F0002CD04146484600F0CFF8290006002000D7
:1013000000F0CAF8331A9C46203B9A4600D576E096
:101310004B46524693401F004B46624693401E0088
:10132000AF4228D825D05346A41BBD41002B00DA7C
:101330007BE0002200230092019301235246934058
:101340000193012362469340009318E08242D0D972
:1013500000220023009201930A9B002B01D01C6005
:101360005D600098019902B01CBC90469946A24667
:10137000F0BDA342D7D90022002300920193634617
:10138000002BE9D0FB079846414672080A437B08C8
:1013900066460EE0AB4201D1A2420CD8A41A9D4190
:1013A000012024196D410021013E24184D41002ED9
:1013B00006D0AB42EED9013E24196D41002EF8D182
:1013C00000980199534600196941002B23DB2B003B
:1013D0005246D3402A006446E2401C0053461500A2
:1013E000002B2DDB26005746BE4033002600674603
:1013F000BE403200801A994100900191ACE76246EC
:1014000020239B1A4A46DA406146130042468A402E
:1014100017001F4380E7624620239B1A2A00664676
:101420009A402300F3401343D4E76246202300216F
:101430009B1A0022009101920122DA40019280E77A
:101440002023624626009B1ADE402F00B0466646E7
:10145000B74046463B003343C8E7C0461C21012342
:101460001B04984201D3000C10391B0A984201D387
:10147000000A08391B09984201D30009043902A265
:10148000105C40187047C0460403020201010101CC
:10149000000000000000000010B5002903D1FFF794
:1014A000DDFF203002E0081CFFF7D8FF10BDC0466A
:1014B00003001218934200D1704719700133F9E705
:1014C000F8B5C046F8BC08BC9E467047F8B5C046A3
:1014D000F8BC08BC9E46704701B40248844601BC73
:1014E000604700BFA1020008000021400000254025
:1014F0000000014000003440000024400000314062
:101500000000324000001F41000023400000114055
:1015100000001D411010101010101010101010803D
:1015200019005500F000050105013B04101C0101E4
:101530000FC000000004000001010101011D3A5725
:10154000789600000000000820001012080000003B
:10155000001F00000010000F002000023F06080ED0
:1015600000080009000A000B24282C303400000079
:10157000100000009000000088000000080000003B
:101580008000000004F0000000F0000040020000B5
:101590002005A000D00100018001A00140019001C0
:1015A000B001200010000000030000000100000056
:1015B00001000000000000000503600004000000BE
:1015C00001000000000000000100000006046000AF
:1015D00008000000F0050008650F00100000000082
:1015E000F8FCFF7F01000000000000100000000870
:1015F000C000000008160010C0000008F80200003B
:10160000F80300081C02000000093D0000127A00E7
:1016100000093D000000D007A00F000004000000FA
:10162000E9000010C100001080B230B5C00020D029
:10163000104B07221C682300BA331B885A43236AC5
:10164000D31819680029FCDA3E210B4B06251960D6
:101650000A4B0B491960A3210A4BC9005D500A4986
:1016600058505858206A1218002050605A58002AC2
:10167000FCDA30BD100600080401264008012640AF
:101680001E1F0000000026401C05000010B5437816
:10169000FF2B11D100F0FCF80400032000F020F92A
:1016A000C3685A680123116819431160116819420F
:1016B000FCD1200000F004F910BDF7B50090002027
:1016C000019100F00DF93F4D06002B681A005033D0
:1016D000BC3214681B780419002B5AD000F0C8F8EB
:1016E000070003281BD000F0D3F8374A374B05001A
:1016F000D358002B3EDA364A0121300000F0E8F8DA
:10170000002837D10198FFF78FFF009B002B3ED0B8
:101710002368002BFCDB00F0CBF804002BE0062054
:1017200000F0DEF82B68BC331B68C0180368002B80
:1017300002DA284C2000FEBD002000F0D9F8264B2C
:101740009842F6D00023254A19001268012000F0C3
:1017500097F80025A842ECD1002000F0C9F81E4AF5
:101760001F4B904203D09D42E3D00135F4E79D42E8
:10177000B9D1DEE7174C032F05D10121002000F07D
:101780008FF80028F9D1280000F09AF8D2E7154C1C
:10179000F1E700F07DF80E4A05000121300000F06D
:1017A00097F8002809D1009B002B08D02368002B54
:1017B000FCDB00F07DF80400E5E7064CE3E7094CAC
:1017C000E1E7C04610060008000026401C050000A6
:1017D00014040008050052000101880024040008D8
:1017E000F049020001005000184BF7B51B68184A79
:1017F0005C68042311690B431361012824D030BFB6
:101800002300FC331B69002B1DD1A320114B12496F
:10181000124AC0000F681E5815680195104D0D60E2
:1018200006251D503E2010600E483E351D501D58A7
:10183000002DFCDA0C48FC3420610F60A321C900A4
:101840005E50019B1360F7BD20BFD9E7100600086A
:1018500000ED00E00000264008012640040126407B
:101860001E1F00001C050000AAAAAAAA0000000072
:1018700001B40248844601BC604700BF95100010C7
:1018800001B40248844601BC604700BF4D0400100B
:1018900001B40248844601BC604700BF1B01001030
:1018A00001B40248844601BC604700BF3106001005
:1018B00001B40248844601BC604700BF79020010B1
:1018C00001B40248844601BC604700BF23010010F8
:1018D00001B40248844601BC604700BF31030010D8
:1018E00001B40248844601BC604700BFB501001046
:1018F00001B40248844601BC604700BFA506001041
:1019000000000000000000000000000000000000D7
:0C191000000000000000000000000000CB
:1020000000780408D12200100D00000045230010C4
:102010004523001045230010452300100000000058
:10202000000000000000000000000000214100103E
:102030004123001000000000C1410010C540001005
:1020400041230010412300104123001041230010C0
:1020500041230010412300104123001041230010B0
:1020600041230010412300104123001041230010A0
:102070004123001041230010412300104123001090
:1022800041230010412300104123001010B5054CDC
:10229000237833B9044B13B10448AFF30080012312
:1022A000237010BDB42B000800000000FCAF0A1022
:1022B00008B5034B1BB103490348AFF3008008BDC9
:1022C00000000000B82B0008FCAF0A1070477047F0
:1022D000FFF7FCFF72B6144C144DAC4209DA2168CA
:1022E0006268A368043BA2BFC858D050FAE70C3418
:1022F000F3E70F490F4A00209142BCBF41F8040B9D
:10230000FAE70D480D490860BFF34F8F00F042FA1D
:1023100000F024FA01F0A2FC30F0A8F900F08CFAE9
:1023200030F070F9FEE7000008B00A1020B00A1083
:10233000B42B0008641101080020000808ED00E03B
:10234000FEE7FEE700B504207146084202D0EFF335
:10235000098001E0EFF3088004301FF0E9FCFEE79C
:1023600008B500F0ADF800F007F800F09BF800F0B9
:1023700017F800F01DF808BD08B5032100201EF075
:102380000DF9FF22032100201DF086FF032100200C
:102390001EF0C6F8014817F0F9FF08BDE88B0310DE
:1023A00008B50322002133201EF082F808BD00008A
:1023B00010B5264C264A002120461AF049FF254830
:1023C00017F0E4FF244A012120461AF041FF234878
:1023D00017F0DCFF224817F0D9FF04F54074214ABA
:1023E000042120461AF034FF1F4817F0CFFF1F4A80
:1023F000062120461AF02CFF1D4817F0C7FF1D4A82
:10240000072120461AF024FF1B4817F0BFFF1B4886
:1024100017F0BCFF1A4817F0B9FF1A4817F0B6FFBB
:10242000194817F0B3FF194817F0B0FF184817F014
:10243000ADFF184817F0AAFF174817F0A7FF174875
:1024400017F0A4FF164817F0A1FF10BD000032409E
:10245000C08C0310F48C0310F88C03102C8D031027
:10246000148C0310888C0310BC8C0310508C031048
:10247000848C0310188C03104C8C0310EC8B03100D
:10248000F08B0310F48B0310F88B0310FC8B0310FC
:10249000008C0310048C0310088C03100C8C0310A8
:1024A000108C0310044B332242F208015A5042F2BE
:1024B00010015A50704700BF00003140FEE7000095
:1024C00030B583B0962100201FF084FC1FF014FC6F
:1024D000B0B9754B1C6804F03F041FF0FDFB30B130
:1024E00001201FF0EFFB714B9B6C002B23DB6E4B2D
:1024F0001C601EF01FFB1EF00BFB01201EF02EFBCC
:10250000012020F0A9F920F051F920F029FA20F05B
:1025100013FA002108461EF03FFA00201EF0AAF927
:1025200001201EF08FF900201EF0B4F8604B1B68EC
:1025300093F83F4006E00620FFF7C0FF20461EF05C
:102540003FFF013C002CF9D1002101201EF07EFB51
:1025500000201EF00FFA002800F08A801EF02AFCEE
:10256000002108461EF072FB002108461EF0E2F929
:10257000504D0024009423462246214628461AF056
:1025800075FD009423462246012128461AF06EFD6F
:1025900049481EF071FA002876D101201EF03AF960
:1025A00000201EF067F900201EF04CF900201EF0FC
:1025B00071F8002101201EF049FB002108461EF0A1
:1025C00045FB002102201EF041FB002103201EF0EC
:1025D0003DFB002104201EF039FB38481EF004FCAE
:1025E000002854D136481EF07BFE002852D100212D
:1025F00008461EF09FF9002108461EF0CDF931492A
:1026000001201EF003FF002847D142F21071012083
:102610001FF01EF8002843D11EF0F2F800201EF033
:10262000A9F800201EF0C6F81EF0D8F8002020F00F
:10263000A1F900201EF086F81EF06AFA01201EF0B3
:102640008DFA642100201FF0C5FB00F04DF81E48F4
:1026500017F09CFE1D4817F099FE1D4817F096FED6
:102660001C4817F093FE1C4817F090FE03B030BDD5
:102670001EF01AFB40F2111398427FF46FAF012154
:1026800000201EF057F969E70520FFF717FF042027
:10269000FFF714FF0420FFF711FF0320FFF70EFFE1
:1026A0000320FFF70BFF00BF00FF2740000027407B
:1026B000F40901080000324040420F00308D031041
:1026C000400D0300588D0310448D0310488D0310F6
:1026D0004C8D0310508D0310548D031008B501204C
:1026E0001BF002F808BD704710B500201FF0CEF9AE
:1026F00000B910BD0446114B18601EF0B1F801304E
:10270000B4FBF0F00E4B18601EF0C2F80130B4FBC1
:10271000F0F40C4B1C60013C0B4BA3FB04239B0C03
:1027200001330A4A13700A4BA3FB04239B090133AC
:10273000084A1360DB03084A1360DAE790220008B6
:10274000942200088C22000883DE1B43A02200088C
:10275000D34D62109C2200089822000808B50A4850
:102760001AF0EEF9FFF7BFFFFFF7BEFF0022114698
:1027700003201BF005F805481AF064FE04481AF01F
:10278000B5FE1AF039FC08BDB4D90310D02B0008EF
:10279000608D031008B500F084FA074AD2F888303B
:1027A00043F47003C2F88830BFF34F8FBFF36F8FCD
:1027B00000F07BFA08BD00BF00ED00E008B504485A
:1027C0001FF088FC08B1002008BD0248FCE700BFEC
:1027D000A42200080000020600487047582D000897
:1027E00010B584B017F0D0FD044638B154B1FFF7EE
:1027F000B7FD6CB184B1204604B010BD19F0ECF8FF
:102800000446F3E740F6E441002019F077F9EEE7DB
:10281000FFF7D4FF0446EDE713230293122301933D
:1028200011230093102315221421024819F0FCFDF6
:102830000446E0E7582D000800B583B0164B062289
:102840001A60FFF7CDFF00B101BE62B64FF4E1326E
:102850002821292020F0E8F900B101BE0F4831F00D
:1028600045FA0F4831F0C8FA0E4831F0C5FA0E4863
:1028700031F0C2FA0D4B01930523009300234FF46E
:1028800080520B490B4802F0B8FD02F04BFE01BE2E
:10289000002003B05DF804FB20530008948D031062
:1028A000A08D0310E08D0310EC8D03101C53000865
:1028B0002C8E0310212A001030B5A7B000238DF80C
:1028C0001C3007A823F0FEFB054670BB244831F0FE
:1028D00093FA08AC682200210CA830F04BF8214B89
:1028E0000FCB84E80F00204B07CBCDF84100CDF88B
:1028F0004510CDF849201B788DF84D301B4B2193A6
:102900002C46092C25D802A908A823F04FFD05461E
:1029100078B14FF47A720146154831F0E7F94FF477
:102920007A7002F087FF0134EBE7124831F064FA65
:1029300012E008A9104831F0D9F903990B0E009361
:10294000C1F30743C1F30722C9B20C4831F0CEF9F5
:1029500002E00B4831F050FA284627B030BD00BFE6
:102960006C8E0310948E0310A48E0310040040009C
:10297000088F03103C8E0310B48E0310E48E0310F6
:10298000548F031000B585B00B4B02221146104640
:1029900020F0D4FD10B105B05DF804FB074B0293A5
:1029A00000230393082200920DEB02030121024849
:1029B000006820F033FEEEE7D0530008C129001074
:1029C00030B58BB0002409940494059406940794C0
:1029D000089409AB0293019400942346142204A99D
:1029E0000C48006821F044FA0546009403239DF842
:1029F000102021460848006803F0C0FA23464FF033
:102A0000FF3204A90548006801F0C0FE28460BB05B
:102A100030BD00BFD05300081C5300080454000808
:102A2000F0B599B0002330223121834817F09AFE87
:102A300000B101BE8149804817F080FF00B101BE9E
:102A400068227D497E4821F081FB00B101BE002251
:102A50000121032001F03CFE7A4B186000231793FC
:102A6000302216921093119313931493159345F6F5
:102A7000EB53ADF8403004238DF84430724B129381
:102A8000FFF71AFF08BB20F097FC18BB6F4831F026
:102A9000B3F9FFF777FF10BB17AB0293182301932D
:102AA00010AB00930023012269496A48006821F0B5
:102AB00043F90146C0B9684831F09EF9674801F012
:102AC000FBF9674831F098F924E0664831F094F951
:102AD00001BED8E7644831F08FF901BED6E76348FC
:102AE00031F08AF901BED7E7614831F0FFF8E5E738
:102AF0005F4831F0FBF84FF47A73009316AB002275
:102B00001146104603F0D2F9554831F075F9169B7D
:102B1000532B16D057482DF0B5FF17AB029318234F
:102B2000019310AB009300230122494949480068F2
:102B300021F002F901460028DAD1474831F05CF96A
:102B4000D9E70024169421464B4831F0CFF805947C
:102B5000069407940894099401252F462E463DE0DB
:102B60002246464905A831F085FA05A9444831F0C6
:102B7000BDF817AB02931823019310AB0093002309
:102B80000A2205A93348006821F0D6F80146A8B307
:102B90003C4831F0ABF831E03B4831F02DF9B9E772
:102BA0003A4831F029F9B5E7BDF9343013F1310F66
:102BB00030DA01344FF0FF362CE0BDF9363013F136
:102BC000310F2FDA01344FF0FF372BE0BDF93830E9
:102BD00013F1310F02DA01344FF0FF350023169361
:102BE0000493012204A9174B186801F0A7FF049B66
:102BF000422BB5D0572BCFD04C2BD1D00AA910489F
:102C000021F0D0FA012ECFD0BDF93430312B01DDC7
:102C100001340126012FD0D0BDF93630312B01DD32
:102C200001340127012DD1D0BDF93830312BD5DD4C
:102C300001340125D2E700BF24530008C022000858
:102C4000D453000804540008C0A800FDCC8F031022
:102C50000C900310D053000810900310E89003105C
:102C6000A08D0310808F0310A48F0310E88F031032
:102C700024900310A07C0A10509003108090031041
:102C8000889003109C900310D4900310DC900310E4
:102C90000230800803D001300238FCD100BF00BFF1
:102CA0007047EFF3108072B6704780F3108870475A
:102CB00050B1C2695AB1026A62B1436A0BB10020D5
:102CC00070474FF0FF3070474FF0FF3070474FF0C4
:102CD000FF3070474FF0FF3070470222C271082367
:102CE00043711021017103218171C2734373142355
:102CF00003730023837343688360C3680361704771
:102D00004B790C2B0BD84A7A93420BD0027802F005
:102D1000F00203F00F0313430370002070476FF0BD
:102D20000300704700207047CB79072B0CD8CA7A74
:102D300093420CD0027802F08F021B0103F0700363
:102D400013430370002070476FF0030070470020AA
:102D500070478B790C2B0BD88A7A93420BD0027870
:102D600002F0F00203F00F031343037000207047DA
:102D70006FF003007047002070474B7B0D2B0BD882
:102D80004A7C93420BD0027802F0F00203F00F036A
:102D900013430370002070476FF00300704700205A
:102DA0007047CB7B022B09D8027802F0CF021B01BF
:102DB00003F0300313430370002070476FF00300EB
:102DC00070478B7B042B0BD88A7C93420BD0027804
:102DD00002F0F80203F0070313430370002070476A
:102DE0006FF0030070470020704783B138B51C4670
:102DF000DD697DB18AB19B78012B05D013460A4667
:102E000001466078A84738BD40F08000F6E74FF0F3
:102E1000FF3070474FF0FF30F5E76FF00B00F2E73F
:102E200038B504460D460B46022201464020FFF706
:102E3000DCFF00B138BD29462046FFF761FF0028BE
:102E4000F8D129462046FFF76FFF0028F2D1294626
:102E5000601CFFF77EFFEDE738B504460D460B46D4
:102E6000022201464220FFF7C0FF00B138BD2946CB
:102E70002046FFF782FF0028F8D129462046FFF7B9
:102E800090FF0028F2D12946601CFFF79AFFEDE77A
:102E900000B583B0034600228DF8072001220DF112
:102EA00007010220FFF7A1FF9DF80730C3F343039A
:102EB000012B08D0022B09D0032B0AD0072B0BD0F3
:102EC00003B05DF804FB6FF00500F9E76FF0060052
:102ED000F6E76FF00700F3E76FF00800F0E730B5B2
:102EE00085B005460C4613460021019102918DF8EC
:102EF0000C10821D01A91220FFF777FF58BB024674
:102F00009DF805301B021BB29DF804100B43238073
:102F10009DF807301B021BB29DF806100B4363801F
:102F20009DF809301B021BB29DF808100B43A380CB
:102F3000032D04D00023A360104605B030BD9DF8DA
:102F40000A109DF80B009DF80C301B0443EA002387
:102F50000B43A360F0E76FF00102EDE710B584B01A
:102F60000C4613460021009101910291CDF80B10FF
:102F700020BB062269460C20FFF737FF02460028D7
:102F800048D19DF801301B021BB29DF800100B4385
:102F900023809DF803301B021BB29DF802100B43E7
:102FA00063809DF805301B021BB29DF804100B4393
:102FB000A3800023A360104604B010BD02460C326B
:102FC00069460C20FFF711FF024630BB9DF8013027
:102FD0001B021BB29DF800100B4323809DF80330A9
:102FE0001B021BB29DF802100B4363809DF8053055
:102FF0001B021BB29DF804100B43A3809DF80C101C
:103000009DF80D009DF80E301B0443EA00230B438E
:10301000A360D0E76FF00102CDE76FF00102CAE7CD
:1030200070B584B006460D46144600220092019207
:103030000292CDF80B2000F10C0269460C20FFF73C
:10304000D4FE002845D102469DF801301B021BB278
:103050009DF800100B4323809DF803301B021BB228
:103060009DF802100B4363809DF805301B021BB2D4
:103070009DF804100B43A3809DF807301B021BB280
:103080009DF806100B432B809DF809301B021BB2E4
:103090009DF808100B436B809DF80B301B021BB290
:1030A0009DF80A100B43AB80032E05D00023AB60C4
:1030B000A360104604B070BD9DF80C109DF80D0083
:1030C0009DF80E301B0443EA00230B43AB60A36062
:1030D000EFE76FF00102ECE72DE9F843002B36D063
:1030E0000546894690461E461C6A002C32D0002AAE
:1030F00033D09B78012B1AD0337A112B1AD0337C22
:10310000152B17D000242746A3B243451BD2376A9C
:10311000012309EB040229467078B84707460135B8
:10312000EDB2736A012098470134E4B2ECE700F095
:103130007F05E1E743464A4629467078A04707469F
:10314000736A012098475FB93846BDE8F8834FF0AD
:10315000FF37F9E74FF0FF37F6E76FF00B07F3E7BC
:103160006FF00107F0E710B582B004460023ADF818
:103170000430014601A8FFF753FE08B102B010BDAC
:103180002346012201A94020FFF7A6FF0028F5D120
:1031900063796372E379E372234601220DF105013D
:1031A0004120FFF799FF0028E8D1A379A372E5E752
:1031B00010B582B004460023ADF80430014601A8E2
:1031C000FFF74AFE08B102B010BD2346012201A953
:1031D0004220FFF781FF0028F5D1637B6374E37B16
:1031E000E374234601220DF105014320FFF774FF2C
:1031F0000028E8D1A37BA374E5E730B583B004468B
:103200000D4600238DF807300B4601220146402071
:10321000FFF7EBFD38B92B79122B06D0227894F901
:103220000030002B15DB03B030BD237863F07F0343
:1032300023702B46012221464020FFF74DFF002836
:10324000F1D12B4602220DF107015820FFF744FF70
:10325000E9E702F07F0222702B460122214640203E
:10326000FFF73AFFDFE730B583B000238DF8073072
:103270000279A2F11003DBB2022B20D80446037AB4
:103280009A4203D10025284603B030BD01460DF116
:103290000700FFF7B2FF05460028F4D123460122BC
:1032A000211D7E20FFF718FF0546237A102B02D040
:1032B00023792372E7E7636A05209847F8E76FF000
:1032C0000305E0E738B50446027BA2F11403DBB244
:1032D000012B01D9172A20D1237C9A4202D1002543
:1032E000284638BD2346012204F10C017E20FFF759
:1032F000F3FE0546237C142B04D0172B06D0237B2A
:103300002374EDE7636A51209847F8E7237B152B78
:10331000F5D1636A0A209847F1E76FF00305DFE70C
:1033200030B583B0B6238DF8073010B30546436A35
:1033300013B3034601220DF107017E20FFF7CCFEF7
:1033400004466B6A0120984714B9AB78012B03D06F
:103350005CB1204603B030BD2B4601220DF10701C0
:103360007F20FFF742FD0446F2E72846FFF7B5FC51
:10337000EFE74FF0FF34ECE74FF0FF34E9E730B50B
:1033800083B00446FFF794FC10B9A378012B11D049
:1033900008BB002323700322531EDDB292B12378B1
:1033A000D12B0FD02346012221460020FFF71DFD1F
:1033B0002A46F1E7234601220DF107017F20FFF79E
:1033C00014FDE5E748B92378D12B09D1FF23E37039
:1033D0002046FFF7A5FF03B030BD6FF00200FAE70B
:1033E0006FF00200F7E758B110B50446436A53B1D5
:1033F000FFF739FF00B110BD2046FFF763FFFAE782
:103400004FF0FF3070474FF0FF30F4E7A8B110B530
:103410000446436AA3B1FFF7A6FE00B110BD2046E3
:10342000FFF7C6FE0028F9D12046FFF7DCFF002891
:10343000F4D12046FFF72CFDF0E74FF0FF30704746
:103440004FF0FF30EAE738B504461546C0F3800078
:1034500004F0030214F0040F00D00320CBB1022AC1
:103460000BD0032A0FD0012A02D06FF0040038BD20
:1034700091B11A46FFF733FDF9E785B11A4629469F
:10348000FFF76CFDF3E76DB179B12A46FFF7C8FD90
:10349000EDE74FF0FF30EAE74FF0FF30E7E74FF09E
:1034A000FF30E4E74FF0FF30E1E74FF0FF30DEE7B9
:1034B000034B0360034B0B6080231360704700BF16
:1034C00084350008842F0008034B0360034B0B6016
:1034D0004FF4807313607047803600088431000811
:1034E00070B582B00546002301931F4B1B68C3B122
:1034F0001D4B1B689BB1FFF7D4FB044602F0A4FBF5
:1035000050B14FF47A7000FB05F01849A1FB00316F
:103510008E09B0F57A7F0ED22046FFF7C6FB02B0C7
:1035200070BD134817F0C8FD18B90F4B104A1A6048
:10353000DEE701BEDCE7012301AA31460A48006844
:1035400018F07EFA0028E7D1019BB34200D901BEF2
:10355000019B4FF47A7000FB03F0044BA3FB003097
:10356000800902F045F8D7E76C2F0008D34D6210B0
:10357000702F000808B503F01CF803680BB1406811
:10358000984708BD2DE9F04784B00C9D002843D032
:103590000F4690461C468146B5F5967F3ED313B143
:1035A00013F0070F3ED184B3002606F5847000F0B7
:1035B00029FF8246002837D025F00705AD083CB327
:1035C000564403220021012001F082F8C6F8FC00D5
:1035D00000B3184BC6F80031C6F804A116F0070F67
:1035E00000D001BE029601949DF8343000930E9BEA
:1035F0002A464146384601F0BFFEC9F8000086421F
:1036000014D0A8B101BE002009E025F00706CCE7E0
:103610000446D5E701BEDCE7074800E0064804B0F1
:10362000BDE8F0870548FAE70548F8E70020F6E727
:103630000020F4E701EFCDAB05000E0606000E06F4
:1036400001000E0610B502F023FB0446D0F800215D
:10365000074B9A4204D001BE204602F0B5F9FBE7C1
:1036600000231A461946D0F8FC0001F08FF8F3E762
:1036700001EFCDABE0B110B50446006801F0F2FEF9
:10368000246801F0A7FFD4F800210A4B9A4203D026
:1036900002F054F8002010BD0023C4F80031D4F823
:1036A000FC0001F079FCD4F8040100F0BBFEEFE768
:1036B0000148704701EFCDAB05000E06A8B110B56B
:1036C00004460368D3F80011094A914203D0002050
:1036D0000023236010BD4FF0FF31D3F8FC0001F050
:1036E000DBFA2046FFF7C6FFF2E70248704700BF4B
:1036F00001EFCDAB05000E0680B110B50446017197
:1037000031B1042001F010F9206028B1002010BD73
:10371000012001F009F9F7E70148F8E7014870478F
:1037200001000E0605000E06B0B108B54FF47A731D
:1037300003FB01F1094BA3FB0131890903792BB18B
:10374000006801F079FB28B1002008BD006801F095
:10375000A3FAF8E70248F8E702487047D34D621031
:1037600000000E0605000E0688B110B503792BB1D6
:10377000006801F0E4F840B1002010BD00231A46B3
:103780001946006801F002F8F5E70248F5E702483B
:10379000704700BF02000E0605000E0628B108B5EE
:1037A000006801F0F9FB002008BD0148704700BF28
:1037B00005000E0660B110B50B46114604461846CA
:1037C00000F0C4FF206008B1002010BD0148FCE7F4
:1037D0000148704701000E0605000E0610B582B0C4
:1037E00000230193D0B1044602B1C9B94FF47A73F2
:1037F00003FB01F10D4BA3FB0131890942B101AA81
:103800000021206801F039FB60B1002002B010BD3A
:10381000206801F041FA38B10020F7E70448F5E7E5
:103820000348F3E70348F1E70248EFE7D34D62109E
:1038300005000E0600000E0610B582B000230193AD
:10384000D8B171B101A9006801F011F9019B73B100
:103850000B4B4FF080521A60BFF34F8FBFF36F8F47
:1038600005E000231A461946006800F08FFF10B1EA
:10387000002002B010BD0348FBE70348F9E700BF92
:1038800004ED00E002000E0605000E0628B108B5A2
:10389000006801F081FB002008BD0148704700BFAF
:1038A00005000E0668B110B50B461146044600220D
:1038B000184600F00DFF206008B1002010BD02483E
:1038C000FCE70248704700BF01000E0605000E0627
:1038D000C8B110B5C9B13BB100231A46006801F068
:1038E0004FF870B1002010BD4FF47A7303FB02F261
:1038F000074BA3FB023200239209006800F046FF49
:10390000EFE70448EFE7044870470348EBE700BFE0
:10391000D34D621002000E0605000E06B8B110B5B8
:10392000B9B133B10022006801F0A7FA68B10020F4
:1039300010BD4FF47A7303FB02F2074BA3FB023274
:103940009209006801F0FAF8F0E70448F0E704484B
:1039500070470348ECE700BFD34D621002000E062B
:1039600005000E0628B108B5006801F015FB00201F
:1039700008BD0148704700BF05000E0630B32DE9B1
:10398000F04182B014461D4607460AB3B1B94FF064
:10399000010808202EF0A8FF0646D8B10460456053
:1039A0000D4B00930346424601210C4802F054FCA3
:1039B000386030B1002002B0BDE8F0814FF000085F
:1039C000E7E730462EF098FF0548F4E705487047D2
:1039D0000448F0E70248EEE775350010A07C0A10B5
:1039E00001000E0605000E0618B310B582B004469D
:1039F0004FF47A7202FB01F20F49A1FB023200235D
:103A0000009392090421006802F042FC012803D0CF
:103A100068B1002002B010BD246801F0E3FD024649
:103A2000002300930121204602F032FCF0E7034816
:103A3000F0E70348704700BFD34D621002000E0646
:103A400005000E0670B110B582B000220092134638
:103A50000321006802F01CFC10B1002002B010BD70
:103A60000148FBE70148704702000E0605000E06FC
:103A700030B110B5044601F0B5FD2060002010BD46
:103A80000048704705000E0608B54FF47A7303FB33
:103A900000F0044BA3FB0030800901F0CBFE0020B6
:103AA00008BD00BFD34D621010B582B0044600239C
:103AB0004FF0FF3269462046FFF730FF0028F6D16D
:103AC000009B13B101989847F1E7FFF7BBFD02B0E7
:103AD00010BD000070B584B004460E4601B100B9B7
:103AE00001BEB36813B1736803B901BE002323603C
:103AF0006360A360E360316901B9102108222046A8
:103B0000FFF7D0FE054680B90123237304F10800B6
:103B1000F2686AB102943378019373680093B368D2
:103B20000749FFF72FFD054620B9284604B070BDB0
:103B3000044AEFE7002323732046FFF713FFF4E75F
:103B4000A93A0010F490031070B582B00446FFF754
:103B5000A8F80546237B002B3ED0012B13D000266E
:103B6000237B042B29D1237BBBB32846FFF79DF889
:103B70002046FFF7F7FE064690BBFFF792F8054692
:103B80000023237329E003232373FFF78EF8002219
:103B900000920192EFF305839B1A18BF0123694637
:103BA0002046FFF795FE06460028D9D0FFF779F8A2
:103BB00001232373FFF779F812E02846FFF775F821
:103BC00004F10800FFF77AFD064648B9FFF769F8E7
:103BD000054604232373C6E700262846FFF765F849
:103BE000304602B070BD000070B582B00D4616467A
:103BF000044640B34DB3FFF754F8237B013BDBB2DF
:103C0000012B24D863680133636002232373FFF719
:103C10004CF800950196EFF30583003B18BF012394
:103C2000002269462046FFF753FE0546FFF739F8A4
:103C30006368013B63600BB901232373FFF735F819
:103C4000284602B070BD01BED4E701BED3E7FFF73E
:103C50002CF8014DF4E700BF20000E06704700006D
:103C600008B50346084A1068084A121A9A4203DB4C
:103C70000344054A136008BD2EF0E8FB0C230360E3
:103C80004FF0FF30F7E700BFC822000800680408C3
:103C900008B501F09FFC08BD08B501F04FFD08BD57
:103CA00008B501F097FC08BD08B501F047FD08BD57
:103CB00008B501F08FFC08BD08B501F03FFD08BD57
:103CC00030B58DB0044600220023CDE90023FFF774
:103CD000EFFF1F4B1B6893B103A91D4B186817F02A
:103CE00025FB054608B3FFF7E7FF25BB1CB1DDE95F
:103CF0000023C4E90023DDE900010DB030BD154803
:103D000017F0AAFA054600B101BE15B1002DEAD19F
:103D1000E2E7104D0E4B1D6068462EF0CBFC0146CD
:103D2000284617F061FB0546F0E703A82EF002FFD6
:103D3000CDE90001D7E72CB14FF0FF324FF0FF3350
:103D4000C4E900234FF0FF304FF0FF31D5E700BF4B
:103D50007C370008803700080CB42DE9F04F89B09B
:103D60004F4B1B78002B00F08B8004460D46052836
:103D700000D900244A4BD3F81C34002B00F0828079
:103D8000474B23441B7B002B7ED0AB42C0F083808B
:103D9000434BD3F82034002B69D007A89847064638
:103DA000002872D1079B3F4FA7FB03274FEA9718C4
:103DB0004FF47A7202FB1838BF093B4BA3FB071282
:103DC00052091146C2EB0212A7EB82070791A3FB2F
:103DD00001235B099A46C3EB0313A1EB8309334B21
:103DE000A3FB0A231B0903EB4303AAEBC30A4FF00F
:103DF000FF312F48FFF798FC064600284DD1DFF829
:103E0000A0B0CDF80C800297CDF80490CDF800A0BA
:103E1000BBF81834274A4FF480610BF1180030F0DA
:103E2000F5F813AB059300F11807129AC0F58061FD
:103E30000BEB070031F0E4FAB0F1FF3F02D0B0F530
:103E4000806F03DB164B002283F81724144FD7F83A
:103E50001C3407F11802294620469847B7F8183451
:103E60000133A7F81834381DFFF77EFC0DE006A8D3
:103E7000FFF7FEFD0A4B5A69069B9B1A079391E7D1
:103E8000022602E0002600E00026304609B0BDE828
:103E9000F04F02B070470026F7E70226F5E700BFB3
:103EA000B0370008D34D621089888888ABAAAAAAC7
:103EB000B43700080091031008B53F4B1860002389
:103EC00006220121007816F02DF890B1D0B110B380
:103ED000002829D0002830D0002837D000283ED034
:103EE000002845D000284CD0002853D000285AD0B4
:103EF00008BD314B1868002306220121407816F0D6
:103F000011F8E3E72C4B1868002306220121807882
:103F100016F008F8DBE7284B186800230622012179
:103F2000C07815F0FFFFD3E7234B18680023062263
:103F30000121007915F0F6FFCCE71F4B186800232C
:103F400006220121407915F0EDFFC5E71A4B1868EC
:103F5000002306220121807915F0E4FFBEE7164B0D
:103F60001868002306220121C07915F0DBFFB7E7AE
:103F7000114B1868012306221946407A15F0D2FF2A
:103F8000B0E70D4B1868002306220121807A15F056
:103F9000C9FFA9E7084B1868012306221946C07A11
:103FA00015F0C0FFA2E7044B18680123062219464A
:103FB000007A15F0B7FF9BE7D83B000800F1080333
:103FC00043604FF0FF328260C360036100230360EF
:103FD000704700230361704743684B609A688A60AA
:103FE000516099600861036801330360704730B421
:103FF0000D68B5F1FF3F11D000F108031C465B6866
:104000001A68AA42FAD963684B6099608C60616053
:10401000086103680133036030BC70470469F2E74C
:104020000369416882688A60416851605A688242C7
:1040300006D0002202611A68013A1A6018687047B7
:1040400082685A60F5E7000082B0002301930D4BAF
:104050001B68B3F1FF3F08D04FF03F0383F3118893
:10406000BFF36F8FBFF34F8F01BE4FF03F0383F35A
:104070001188BFF36F8FBFF34F8F019B002BFCD0D4
:1040800002B07047CC22000808480068006880F33E
:1040900008884FF0000080F3148862B661B6BFF361
:1040A0004F8FBFF36F8F00DF00BF000008ED00E00F
:1040B000DFF80C00016841F47001016070470000F6
:1040C00088ED00E008B54FF03F0383F31188BFF39C
:1040D0006F8FBFF34F8F01F0A5FA18B1034B4FF06C
:1040E00080521A60002383F3118808BD04ED00E0BC
:1040F0004FF0807340F8043C21F0010140F8081CA7
:10410000054B40F80C3C40F8202C6FF0020340F8BF
:10411000243C4438704700BF4940001000000000B4
:10412000074B19680868B0E8F04F80F30988BFF3BF
:104130006F8F4FF0000080F311887047AFF300805D
:10414000E43B00084FF03F0383F31188BFF36F8F08
:10415000BFF34F8F0A4A136801331360012B00D05D
:104160007047084B1B6813F0FF0FF9D04FF03F0367
:1041700083F31188BFF36F8FBFF34F8F01BEEFE75B
:10418000CC22000804ED00E0094B1B6843B94FF056
:104190003F0383F31188BFF36F8FBFF34F8F01BECF
:1041A000034A1368013B13600BB983F3118870470E
:1041B000CC22000800000000000000000000000009
:1041C000EFF30980BFF36F8F154B1A681EF0100FC5
:1041D00008BF20ED108A20E9F04F10602DE909009A
:1041E0004FF03F0080F31188BFF34F8FBFF36F8F05
:1041F00001F07EFB4FF0000080F3118809BC1968C4
:104200000868B0E8F04F1EF0100F08BFB0EC108A3D
:1042100080F30988BFF36F8F704700BFAFF3008052
:10422000E43B00080A4A002313600A490B600A4B6A
:104230001B680A49A1FB03139B09013B08490B605A
:1042400007231360074B9B68074ADA63704700BF78
:1042500010E000E018E000E08C220008D34D62106E
:1042600014E000E000ED00E0C540001010B582B0A1
:104270003A4B1A683A4B9A4227D0384B1A68394B56
:104280009A422CD0384B1A78D2B20192FF221A707F
:104290001B78DBB28DF803309DF8033003F03F0349
:1042A000324A1370324B07221A609DF8033013F024
:1042B000800F1ED02E4A1368013B13609DF8033017
:1042C0005B00DBB28DF80330EFE74FF03F0383F381
:1042D0001188BFF36F8FBFF34F8F01BECDE74FF053
:1042E0003F0383F31188BFF36F8FBFF34F8F01BE7E
:1042F000C8E71F4B1B68042B08D04FF03F0383F324
:104300001188BFF36F8FBFF34F8F01BE184A136838
:104310001B0203F4E0631360019BDBB2124A1370CB
:10432000144B1A6842F47F021A601A6842F07F4206
:104330001A60FFF777FF00240F4B1C60FFF7B8FEF1
:104340000E4A136843F040431360FFF79DFE01F0EF
:10435000CFFAFFF779FE204602B010BD00ED00E075
:1043600071C20F4170C20F4100E400E0DC3B000865
:10437000E03B000820ED00E0CC22000834EF00E034
:10438000EFF305830F2B0FD9104A9B5CDBB2104A69
:1043900012789A4208D94FF03F0383F31188BFF394
:1043A0006F8FBFF34F8F01BE0A4B1B6803F4E063AE
:1043B000094A1268934208D94FF03F0383F31188EA
:1043C000BFF36F8FBFF34F8F01BE7047F0E300E084
:1043D000DC3B00080CED00E0E03B00084FF03F0341
:1043E00083F31188BFF36F8FBFF34F8F01BEFEE7DA
:1043F0004FF03F0383F31188BFF36F8FBFF34F8FED
:1044000001BEFEE710B5044601F0E4F820462EF0A8
:104410006BFA044601F092F90CB1204610BDFFF78B
:10442000DDFFFAE748B110B5044601F0D3F82046A5
:104430002EF062FA01F082F910BD70470346406A1F
:1044400018B11B6B1868C0F10700704710B504461F
:10445000FFF778FEA26BE36B9A4204D00024FFF7CB
:1044600093FE204610BD0124F9E710B50446FFF77E
:1044700069FEA36B23B90124FFF786FE204610BD19
:104480000024F9E770B504461546866B026C5AB9EC
:1044900003681BB100200136A66370BD806801F07F
:1044A00059FC0023A360F6E76DB940682EF03AFA94
:1044B000226C636813446360A268934219D3236833
:1044C00063602846E7E7C0682EF02CFA226C514260
:1044D000E3689B1AE3602268934202D2A3680B440C
:1044E000E360022D01D00020D5E726B1013E002077
:1044F000D1E72846CFE70020CDE70346026C6AB13A
:1045000010B50846D9681144D9609C68A14201D30E
:104510001968D960D9682EF005FA10BD704738B512
:104520000546FFF70FFE95F8454064B203E001F041
:1045300085FB013C64B2002C08DD6B6A33B105F1E8
:10454000240001F0E1FA0028F3D0F0E7FF2385F81A
:104550004530FFF719FEFFF7F5FD95F8444064B2CA
:1045600003E001F06BFB013C64B2002C08DD2B6919
:1045700033B105F1100001F0C7FA0028F3D0F0E7DD
:10458000FF2385F84430FFF7FFFD38BD38B50D46F1
:104590000446D0B1FFF7D6FD2168E26B236C03FB24
:1045A0000210A0600020A0636160013A02FB0313C7
:1045B000E360FF2384F8443084F84530F5B923697B
:1045C0006BB9FFF7E1FD012038BD4FF03F0383F3E6
:1045D0001188BFF36F8FBFF34F8F01BEDAE704F18D
:1045E000100001F091FA0028EBD0094B4FF08052F7
:1045F0001A60BFF34F8FBFF36F8FE2E704F1100033
:10460000FFF7DCFC04F12400FFF7D8FCD9E700BF7A
:1046100004ED00E038B51D46049C0B4649B9246002
:10462000E063236401212046FFF7B0FF84F84C507B
:1046300038BD2260F4E730B585B01C46054640B968
:104640004FF03F0383F31188BFF36F8FBFF34F8F9A
:1046500001BE3CB34AB141B94FF03F0383F3118827
:10466000BFF36F8FBFF34F8F01BE2AB35023039365
:10467000039B502B08D04FF03F0383F31188BFF307
:104680006F8FBFF34F8F01BE039B44B1012384F8AA
:10469000463000949DF820302846FFF7BBFF2046A7
:1046A00005B030BD4FF03F0383F31188BFF36F8F28
:1046B000BFF34F8F01BECDE70029D7D04FF03F03A6
:1046C00083F31188BFF36F8FBFF34F8F01BECDE728
:1046D000F0B583B00C461746064640B94FF03F038D
:1046E00083F31188BFF36F8FBFF34F8F01BE04FBBD
:1046F00006F064B1B0FBF4F3B34208D04FF03F03CF
:1047000083F31188BFF36F8FBFF34F8F01BE10F19A
:10471000510F08D94FF03F0383F31188BFF36F8F18
:10472000BFF34F8F01BE5030FFF76CFE054650B10E
:10473000002380F8463000903B4600F150022146AD
:104740003046FFF767FF284603B0F0BD10B50C46B2
:10475000034640B94FF03F0282F31188BFF36F8FD9
:10476000BFF34F8F01BEA34208D24FF03F0282F346
:104770001188BFF36F8FBFF34F8F01BE022200215C
:104780001846FFF7A5FF00B1846310BDF0B585B0F2
:104790000F4601921D46044690B1DFB1022D26D08E
:1047A00001F07CFA50B9019B43B14FF03F0383F312
:1047B0001188BFF36F8FBFF34F8F01BE00265DE0FE
:1047C0004FF03F0383F31188BFF36F8FBFF34F8F19
:1047D00001BEE2E7236C002BE0D04FF03F0383F3F0
:1047E0001188BFF36F8FBFF34F8F01BED6E7E36B26
:1047F000012BD5D04FF03F0383F31188BFF36F8FA8
:10480000BFF34F8F01BECBE72A4639462046FFF75C
:1048100039FE636A6BB938B13C4B4FF080521A6075
:10482000BFF34F8FBFF36F8FFFF7AEFC012005B0D2
:10483000F0BD04F1240001F067F90028F4D0334BF7
:104840004FF080521A60BFF34F8FBFF36F8FEBE7CB
:10485000FFF79AFC0020EAE702A801F09DF9012683
:1048600019E0002384F8443021E0002384F8453027
:1048700023E02046FFF753FE00F060FFFFF762FCE5
:10488000A26BE36B9A42BFD3022DBDD0019B002BDC
:10489000DED0002EE0D0FFF777FC00F09BFEFFF7A4
:1048A00051FC94F8442052B2B2F1FF3FD9D094F8B1
:1048B000452052B2B2F1FF3FD7D0FFF765FC01A906
:1048C00002A801F075F9C8B92046FFF7BFFD00281E
:1048D000CFD0019904F1100001F0DEF82046FFF777
:1048E0001EFE00F02BFF0028C8D1084B4FF080526D
:1048F0001A60BFF34F8FBFF36F8FBFE72046FFF7FC
:104900000EFE00F01BFF002091E700BF04ED00E069
:1049100048B110B5002181600160C1600B460A46B4
:10492000FFF734FF10BD704710B50246002101208B
:10493000FFF7CEFE0446FFF7EBFF204610BD38B56B
:10494000044630B1A56801F0A3F985420BD00020E0
:1049500038BD4FF03F0383F31188BFF36F8FBFF370
:104960004F8F01BEEEE7E368013BE3600BB101202E
:10497000EEE71A4619462046FFF708FF0120E7E751
:104980002DE9F8430E4691461D460446C8B116B3BC
:10499000022D2DD0FFF7F4FCEFF311884FF03F0309
:1049A00083F31188BFF36F8FBFF34F8FA26BE36B5D
:1049B0009A422AD3022D28D0002088F31188BDE81E
:1049C000F8834FF03F0383F31188BFF36F8FBFF37A
:1049D0004F8F01BEDBE7236C002BD9D04FF03F0394
:1049E00083F31188BFF36F8FBFF34F8F01BECFE703
:1049F000E36B012BCED04FF03F0383F31188BFF35D
:104A00006F8FBFF34F8F01BEC4E794F845707FB23C
:104A1000A36B2A4631462046FFF734FDB7F1FF3F2E
:104A200007D07F2F15D001377FB284F84570012061
:104A3000C3E7636A0BB90120BFE704F1240001F06A
:104A400063F880B1B9F1000F0FD00120C9F8000060
:104A5000B3E74FF03F0383F31188BFF36F8FBFF3CA
:104A60004F8F01BEDFE70120A7E70120A5E770B562
:104A70000E46044660B3236C43B14FF03F0383F30B
:104A80001188BFF36F8FBFF34F8F01BE23684BB305
:104A9000FFF776FCEFF311854FF03F0383F31188A6
:104AA000BFF36F8FBFF34F8FA26BE36B93423DD980
:104AB00094F845305BB20132A263B3F1FF3F1ED0E0
:104AC0007F2B29D001335BB284F8453001202EE0E2
:104AD0004FF03F0383F31188BFF36F8FBFF34F8F06
:104AE00001BEC8E7A368002BD2D04FF03F0383F389
:104AF0001188BFF36F8FBFF34F8F01BEC8E7636AA2
:104B00000BB9012013E004F1240000F0FDFF88B18F
:104B100096B1012030600AE04FF03F0282F3118825
:104B2000BFF36F8FBFF34F8F01BECBE7002085F33C
:104B3000118870BD0120FAE70120F8E7F0B585B0D3
:104B40000F460192044680B1CFB101F0A7F850B9E9
:104B5000019B43B14FF03F0383F31188BFF36F8F85
:104B6000BFF34F8F01BE002653E04FF03F0383F3A6
:104B70001188BFF36F8FBFF34F8F01BEE4E7236C43
:104B8000002BE2D04FF03F0383F31188BFF36F8F08
:104B9000BFF34F8F01BED8E739462046FFF7ADFC83
:104BA000013DA563236923B9FFF7EEFA012005B0A3
:104BB000F0BD04F1100000F0A7FF0028F4D0354B41
:104BC0004FF080521A60BFF34F8FBFF36F8FEBE748
:104BD000FFF7DAFA0020EAE702A800F0DDFF01267D
:104BE00021E0002384F8443029E0002384F8453094
:104BF0002BE02046FFF793FC00F0A0FD09E02046E3
:104C0000FFF78DFC00F09AFD2046FFF72EFC0028F0
:104C10003DD1FFF797FAA56B002DBDD1019B002B6D
:104C2000D6D0002ED8D0FFF7AFFA00F0D3FCFFF7B4
:104C300089FA94F844305BB2B3F1FF3FD1D094F8D5
:104C400045305BB2B3F1FF3FCFD0FFF79DFA01A92A
:104C500002A800F0ADFF0028D1D12046FFF705FCE7
:104C60000028C6D0019904F1240000F015FF204669
:104C7000FFF755FC00F062FD0028CAD1054B4FF04C
:104C800080521A60BFF34F8FBFF36F8FC1E70020D0
:104C90008DE700BF04ED00E070B584B001910446DB
:104CA000D8B1236C43B14FF03F0383F31188BFF3B6
:104CB0006F8FBFF34F8F01BE00F0F0FF50B9019B23
:104CC00043B14FF03F0383F31188BFF36F8FBFF3FE
:104CD0004F8F01BE002635465BE04FF03F0383F364
:104CE0001188BFF36F8FBFF34F8F01BED9E7013B30
:104CF000A363236833B1236943B9FFF745FA012061
:104D000004B070BD01F0C4F8A060F4E704F1100035
:104D100000F0FAFE0028F0D0464B4FF080521A60A7
:104D2000BFF34F8FBFF36F8FE7E746B14FF03F03FD
:104D300083F31188BFF36F8FBFF34F8F01BEFFF76F
:104D400023FA0020DCE702A800F026FF01252AE074
:104D5000002384F8443032E0002384F8453034E006
:104D6000FFF7F0F9A06800F0A9FF0646FFF70CFA7C
:104D70003BE02046FFF7D3FB00F0E0FC09E02046D3
:104D8000FFF7CDFB00F0DAFC2046FFF76EFB0028B2
:104D900040D1FFF7D7F9A36B002BA8D1019B002BC3
:104DA000C3D0002DCFD0FFF7EFF900F013FCFFF7D1
:104DB000C9F994F844305BB2B3F1FF3FC8D094F81E
:104DC00045305BB2B3F1FF3FC6D0FFF7DDF901A973
:104DD00002A800F0EDFE0028D1D12046FFF745FBE8
:104DE0000028C6D02368002BBAD0019904F1240012
:104DF00000F052FE2046FFF792FB00F09FFC0028D7
:104E0000C7D10C4B4FF080521A60BFF34F8FBFF3E6
:104E10006F8FBEE70EB9002072E7FFF793F92046C7
:104E2000FFF70CFB0146A06800F0DEFFFFF7ACF9CE
:104E3000F1E700BF04ED00E070B50D46044668B12F
:104E4000A66800F025FF864212D029462046FFF7CB
:104E500023FF88B1E3680133E3600DE04FF03F03C7
:104E600083F31188BFF36F8FBFF34F8F01BEE7E766
:104E7000E3680133E360012070BD2DE9F8430C467F
:104E80001646054698B1E4B1FFF77AFAEFF31189B7
:104E90004FF03F0383F31188BFF36F8FBFF34F8F42
:104EA000AF6BDFB9002089F31188BDE8F8834FF0BC
:104EB0003F0383F31188BFF36F8FBFF34F8F01BEA2
:104EC000E1E72B6C002BDFD04FF03F0383F3118819
:104ED000BFF36F8FBFF34F8F01BED5E795F84480C6
:104EE0004FFA88F821462846FFF707FB013FAF63DA
:104EF000B8F1FF3F0AD0B8F17F0F14D008F10108D4
:104F00004FFA88F885F844800120CCE72B690BB96B
:104F10000120C8E705F1100000F0F6FD68B176B198
:104F200001203060BFE74FF03F0383F31188BFF3E8
:104F30006F8FBFF34F8F01BEE0E70120B3E7012081
:104F4000B1E700000023092B0CD8074A52F83320A0
:104F50000AB10133F7E7044A42F8331002EBC30306
:104F600058607047704700BF085400080023092BA1
:104F70000FD8084A02EBC3025268824201D00133C3
:104F8000F5E7044A002142F8331002EBC3035960ED
:104F9000704770470854000810B5044630B12046E9
:104FA000FFF7E4FF94F8463053B110BD4FF03F03D4
:104FB00083F31188BFF36F8FBFF34F8F01BEEEE70E
:104FC0002046FFF72FFAF0E770B504460D46164667
:104FD000FFF7B8F894F844305BB2B3F1FF3F0DD05F
:104FE00094F845305BB2B3F1FF3F0BD0FFF7CCF83C
:104FF000A36B5BB12046FFF792FA70BD002384F8E3
:105000004430EDE7002384F84530EFE73246294687
:1050100004F1240000F05AFDECE700000A4B1B6885
:1050200003B10123094A1268D06A50B9084A1268CC
:10503000012A07D833B9074B1868074B1B68C01AF9
:1050400070470020704700BF8C3C0008E43B00081C
:10505000F03B0008B83C0008043D0008074B1B6803
:105060001B6823B9064B4FF0FF321A607047034BA1
:105070001B68DB681A68024B1A607047E83B00083F
:10508000B83C00082DE9F04780460D461746994682
:10509000089EDDF824A00A9C9200A521206B2DF02B
:1050A00069FC236B07F18042013A03EB820727F08A
:1050B0000707002D46D000220F2A07D8A95CA318A5
:1050C00083F83410AB5C0BB10132F5E7002384F8B0
:1050D0004330062E00D90626E662E66400252565E3
:1050E000201DFEF776FF04F11800FEF772FF246121
:1050F000C6F10706A66164624022294604F1540005
:105100002DF038FCC4F8F45084F8F8506022294699
:1051100004F194002DF02EFC0C4BC4F898300C4B8D
:10512000C4F89C300B4BC4F8A0304A464146384680
:10513000FEF7DEFF2060BAF1000F01D0CAF8004090
:10514000BDE8F087002384F83430C2E788AA0A104B
:10515000A8AA0A1068AA0A1038B5002407E004EBD0
:10516000840293000E481844FEF728FF0134062CF1
:10517000F5D90C4D2846FEF721FF0B4C2046FEF7D3
:105180001DFF0A48FEF71AFF0948FEF717FF0948F6
:10519000FEF714FF084B1D60084B1C6038BD00BFB4
:1051A000F03B0008903C0008A43C0008C43C000808
:1051B000F03C0008DC3C0008E83B0008EC3B000841
:1051C00010B50446FEF7BEFF214A13680133136091
:1051D000204B1B685BB1204B1B686BB91D4B1B68D8
:1051E000DA6AE36A9A4207D81A4B1C6004E0194B4A
:1051F0001C601368012B27D0184A13680133136011
:105200006364E06A164B1B68984201D9144B18601E
:1052100000EB8000211D134B03EB8000FEF7DCFE4A
:10522000FEF7B2FF0C4B1B686BB10A4B1B68DA6AC6
:10523000E36A9A4207D20C4B4FF080521A60BFF3D8
:105240004F8FBFF36F8F10BDFFF786FFD4E700BF0E
:105250007C3C0008E43B0008D83C0008883C00087F
:105260008C3C0008F03B000804ED00E010B504465B
:1052700094302EF017FE94F8F9306BB1012B12D058
:10528000022B08D04FF03F0383F31188BFF36F8FD9
:10529000BFF34F8F01BE10BD206BFFF7C3F8204650
:1052A000FFF7C0F8F7E72046FFF7BCF8F3E7000088
:1052B0000F4B1B68D3B110B5FEF744FF0D4BDB68F5
:1052C000DC68201DFEF7ACFE0B4A1368013B13603F
:1052D000074A1368013B1360FEF756FF2046FFF7AD
:1052E000C5FF034B1B68002BE6D110BD704700BF04
:1052F000803C0008F03C00087C3C000870B5044687
:105300000D46174B1E68174B18680430FEF788FED1
:10531000B4F1FF3F0DD03444124B1B685C60A642D1
:1053200010D9114B18680F4B19680431FEF75FFE56
:1053300070BD002DEFD00B4B196804310B48FEF700
:105340004BFEF5E70A4B1868064B19680431FEF767
:105350004EFE084B1B68A342EAD9064B1C60E7E7E8
:10536000043D0008E43B0008EC3B0008DC3C00087E
:10537000E83B0008B83C000870B586B00B9D0C9C5B
:1053800015B35CB3FC260496049EFC2E08D04FF0A7
:105390003F0686F31188BFF36F8FBFF34F8F01BEB7
:1053A000049E2CB325B32563022584F8F95000250B
:1053B0000395029405AD01950A9D0095FFF762FEE5
:1053C0002046FFF7FDFE15E04FF03F0686F31188FB
:1053D000BFF36F8FBFF34F8F01BED2E74FF03F0691
:1053E00086F31188BFF36F8FBFF34F8F01BEC9E7FC
:1053F00000230593059806B070BD2DE9F04385B0F4
:105400000746884614461E469000FEF7FBFF00B391
:105410008146FC20FEF7F6FF0546B0B1C0F830909B
:10542000E5B1002385F8F930039302950D9B0193B4
:105430000C9B00933346224641463846FFF722FE36
:105440002846FFF7BDFE012005E04846FEF7EAFFCB
:10545000E6E74FF0FF3005B0BDE8F0834FF0FF30D6
:10546000F9E7000038B50446FEF76CFE44B3251D8D
:105470002846FEF7D5FDA36A1BB104F11800FEF71C
:10548000CFFD204A1368013313601F4B1B68A342F2
:1054900019D01E4A1368013B1360FFF7DFFDFEF7CA
:1054A00073FE194B1B68A34202D02046FFF7DEFEB5
:1054B000174B1B681BB1144B1B68A3420CD038BDA3
:1054C000114B1C68D3E729461248FEF785FD124AA6
:1054D000136801331360E2E7104B1B6843B14FF0D0
:1054E0003F0383F31188BFF36F8FBFF34F8F01BE6C
:1054F0000B4B4FF080521A60BFF34F8FBFF36F8F8B
:10550000DDE700BF883C0008E43B00087C3C000865
:10551000D83C0008F03C0008803C0008843C0008AF
:1055200004ED00E010B588B000240594069407AAA5
:1055300006A905A8FDF7BCFF059B0293069B0193F6
:1055400000942346079A1B491B48FFF715FF50B1EB
:1055500000F04EFE012808D0B0F1FF3F1FD0174BDE
:105560001B6808B010BD0020F4E74FF03F0383F341
:105570001188BFF36F8FBFF34F8F114B1B689433AC
:10558000104A1360104B4FF0FF321A600F4B01228C
:105590001A600F4B00221A60FEF768FEDFE74FF03B
:1055A0003F0383F31188BFF36F8FBFF34F8F01BEAB
:1055B000D5E700BF1C91031081580010205300084C
:1055C000E43B000838250008B83C0008D83C000837
:1055D000043D0008024A136801331360704700BF9E
:1055E000843C0008014B1868704700BF043D000868
:1055F0000A4B1B6803440A4A1268934208D94FF0C9
:105600003F0383F31188BFF36F8FBFF34F8F01BE4A
:10561000024A136818441060704700BF043D000838
:10562000B83C0008F8B53A4B1B68002B69D1394BE0
:105630001E6801361E60C6B9374B1B681B6843B134
:105640004FF03F0383F31188BFF36F8FBFF34F8F8A
:1056500001BE314A1168314B186810601960304A38
:10566000136801331360FFF7F9FC2E4B1B68B3423C
:105670003DD900272C4B1B68DB6A03EB83039A00A0
:105680002A4B9B58012B00D90127294B1B68002B63
:105690003CD001273AE001271F4B1B681B6843B32E
:1056A0001D4B1B68DB68DC6863689E4226D3251DA2
:1056B0002846FEF7B5FCA36A1BB104F11800FEF7FB
:1056C000AFFCE36A1B4A1268934201D9194A13607E
:1056D00003EB83039A00294614481044FEF77CFC30
:1056E000E26A114B1B68DB6A9A42D4D2D4E70027E6
:1056F000D2E70C4B4FF0FF321A60BBE7094A136048
:10570000B8E70D4A13680133136000273846F8BD27
:10571000843C0008043D0008E83B0008EC3B00081E
:10572000BC3C0008B83C0008E43B0008F03B000823
:10573000083D00088C3C0008C03C000838B5344BDC
:105740001B6843B94FF03F0383F31188BFF36F8F9A
:10575000BFF34F8F01BEFEF7F5FC2D4B1A68013ADF
:105760001A601B68002B4DD12A4B1B680BB9002413
:1057700049E00024284B1B681BB3274BDB68DC681F
:1057800004F11800FEF74CFC251D2846FEF748FCE6
:10579000E06A224B1B68984201D9204B186000EB4D
:1057A000800029461E4B03EB8000FEF715FCE26AE1
:1057B0001C4B1B68DB6A9A42DCD31B4B01221A602C
:1057C000D8E70CB1FFF74AFC184B1C6874B9164BAC
:1057D0001C68C4B1164B4FF080521A60BFF34F8F54
:1057E000BFF36F8F01240EE0013C07D0FFF71AFFD3
:1057F0000028F9D00C4B01221A60F5E70B4B002270
:105800001A60E4E70024FEF7BFFC204638BD00BF65
:10581000843C00087C3C0008C43C00088C3C000828
:10582000F03B0008E43B0008083D0008C03C0008CD
:1058300004ED00E010B5A8B104460F4B1B6843B15E
:105840004FF03F0383F31188BFF36F8FBFF34F8F88
:1058500001BEFFF7BFFE00212046FFF74FFDFFF717
:105860006DFF38B9054B4FF080521A60BFF34F8F70
:10587000BFF36F8F10BD00BF843C000804ED00E053
:1058800008B503E0FFF7CAFB01280ED8FFF710FDAB
:10589000134B1B68012BF5D9124B4FF080521A6045
:1058A000BFF34F8FBFF36F8FECE7FFF793FE0E4B05
:1058B0001A680E4B1B689A4208D24FF03F0383F3DD
:1058C0001188BFF36F8FBFF34F8F01BEFFF7A6FBA9
:1058D000012801D9FDF704FEFFF730FFD6E700BF2E
:1058E000F03B000804ED00E0B83C0008043D00086F
:1058F0002F4B1B681BB12F4B01221A60704710B54C
:105900002C4B00221A602C4B1B681B6B1A68B2F1DF
:10591000A53F03D15A68B2F1A53F08D0264B1868BD
:1059200019683431FEF764FD244B1B6809E09A685E
:10593000B2F1A53FF2D1DB68B3F1A53FEED1F3E7B9
:10594000013B03EB83018A001D498A585AB9002B99
:10595000F6D14FF03F0282F31188BFF36F8FBFF390
:105960004F8F01BEECE703EB830082000A445068CE
:105970004068506003EB8304A200144608321144CF
:1059800088420FD003EB830291000D4A0A4452680B
:10599000D168094A116009490B6013689433094AB8
:1059A000136010BD4068064A22445060EAE700BF19
:1059B000843C0008083D0008E43B00088C3C0008DB
:1059C000F03B00083825000838B50446FEF7BAFB5E
:1059D000D4B1251D2846FEF723FBA36A1BB104F1B1
:1059E0001800FEF71DFB29462548FEF7F5FA0023AF
:1059F000002B0CDDFEF7C8FB224B1B68A3B9224B22
:105A00001B68A34217D038BD1F4B1C68E1E7E218A2
:105A100092F8F820D2B2012A01D00133E8E7E21867
:105A2000002182F8F810F8E7FEF78CFBFFF716FB71
:105A3000FEF7AAFBE3E7134B1B68A3B1134B1B68EC
:105A400043B14FF03F0383F31188BFF36F8FBFF370
:105A50004F8F01BE0E4B4FF080521A60BFF34F8F35
:105A6000BFF36F8FCFE7064B1A680A4B1B689A4249
:105A700003D1054B00221A60C5E7FFF739FFC2E7E3
:105A8000DC3C0008D83C0008E43B0008843C0008EB
:105A900004ED00E07C3C000810B50C4648B10A4B10
:105AA00019681831FEF7A3FA01212046FFF726FCFA
:105AB00010BD4FF03F0383F31188BFF36F8FBFF327
:105AC0004F8F01BEEBE700BFE43B000838B50D4641
:105AD000144660B10B4B19681831FEF77DFA0CB112
:105AE0004FF0FF3521462846FFF708FC38BD4FF040
:105AF0003F0383F31188BFF36F8FBFF34F8F01BE56
:105B0000E8E700BFE43B000838B5C368DC6834B39D
:105B100004F118052846FEF783FA194B1B6843BBAE
:105B2000251D2846FEF77CFAE06A164B1B68984252
:105B300001D9144B186000EB80002946124B03EB8F
:105B40008000FEF749FAFFF789FAE26A0F4B1B68FB
:105B5000DB6A9A4212D901200D4B186038BD4FF014
:105B60003F0383F31188BFF36F8FBFF34F8F01BEE5
:105B7000CEE729460748FEF72FFAE6E70020EDE7D3
:105B8000843C00088C3C0008F03B0008E43B000823
:105B9000083D0008C43C0008034B1B680360034B2E
:105BA0001B684360704700BFBC3C0008043D000810
:105BB000F8B50C460546A8B1F4B1FEF7C3FA1D4B83
:105BC00019686B68C81A2268B2F1FF3F2CD02F68A1
:105BD000194E3668B74219D08B4217D8002323607C
:105BE000012422E04FF03F0383F31188BFF36F8F4E
:105BF000BFF34F8F01BEDFE74FF03F0383F3118800
:105C0000BFF36F8FBFF34F8F01BED6E7824203D839
:105C100000232360012408E05B1A13442360284614
:105C2000FFF7BAFF002400E00024FEF7ADFA20469B
:105C3000F8BD00BF043D0008BC3C0008014B012238
:105C40001A607047083D00080C4B1B6873B90C4B79
:105C50001B686BB90B4B1B6863B90B4B1A680B4B7A
:105C60001B68013B9A4207D0012070470020704713
:105C7000002070470020704702207047C43C000895
:105C8000083D0008C03C0008DC3C00087C3C0008E3
:105C9000014B1868704700BFE43B0008054B1B68C8
:105CA00033B1054B1B680BB10020704702207047D1
:105CB00001207047D83C0008843C000800283ED0F2
:105CC00038B50446C36A204A1268D26A93422ED27B
:105CD0008269002A05DB1C4A1268D26AC2F10702F7
:105CE0008261616903EB8303184A02EB83039942E3
:105CF00005D0154B1B68DB6AE362012038BD251D0A
:105D00002846FEF78DF9104B1B68D86AE062104BED
:105D10001B68984201D90E4B186000EB80002946A1
:105D20000A4B03EB8000FEF757F90120E6E7C26C4F
:105D3000054B1B68DB6A9A4203D30020DEE7002094
:105D400070470120DAE700BFE43B0008F03B0008A1
:105D50008C3C000800283CD038B504461F4B1B681B
:105D6000834208D04FF03F0383F31188BFF36F8F56
:105D7000BFF34F8F01BE236D43B94FF03F0383F351
:105D80001188BFF36F8FBFF34F8F01BE236D013BAF
:105D90002365E16AE26C91421DD00BB1002038BD51
:105DA000251D2846FEF73CF9E06CE062C0F10703D0
:105DB000A3610B4B1B68984201D9094B186000EB9B
:105DC00080002946074B03EB8000FEF705F9012010
:105DD000E5E7002070470020E1E700BFE43B000852
:105DE0008C3C0008F03B0008002849D038B5044638
:105DF000036D43B94FF03F0383F31188BFF36F8FF7
:105E0000BFF34F8F01BEE36C8B4200D20B46E26AB8
:105E10009A4202D0226D012A00D038BD194A126878
:105E2000A24223D0E26AE362A169002902DBC3F146
:105E30000703A361616902EB8202134B03EB820249
:105E40009142EAD1251D2846FEF7EAF8E06A0F4B99
:105E50001B68984201D90D4B186000EB8000294661
:105E6000094B03EB8000FEF7B7F8D6E74FF03F028F
:105E700082F31188BFF36F8FBFF34F8F01BED1E75D
:105E8000704700BFE43B0008F03B00088C3C000872
:105E9000054B1B6823B1044B1A68136D013313655E
:105EA000014B1868704700BFE43B0008F8B50F4687
:105EB00016461D46044640B14FF03F0383F3118858
:105EC000BFF36F8FBFF34F8F01BEFEF73BF9294B36
:105ED0001B68234493F8F830DBB2022B10D0254A1C
:105EE000136804F13C0103EB8103596821EA0707B9
:105EF0005F6013682344012283F8F820069BFBB9F6
:105F0000FEF742F9FEF71EF93DB11A4B1B6804F18A
:105F10003C0203EB82035B682B60164B1B68234437
:105F200093F8F830DBB2022B17D00025114B1B6819
:105F30001C44002384F8F830FEF726F92846F8BD03
:105F400011461846FFF7DAF90B4B4FF080521A60F2
:105F5000BFF34F8FBFF36F8FD2E7064B1B6804F17F
:105F60003C0203EB82035A6822EA06065E600125C2
:105F7000DCE700BFE43B000804ED00E02DE9F04160
:105F8000044617461E46DDF818800D4641B14FF015
:105F90003F0383F31188BFF36F8FBFF34F8F01BEB1
:105FA000CCB1FEF7CFF8B8F1000F06D005F13C03F5
:105FB00004EB83035B68C8F80030631993F8F810AA
:105FC000C9B2022283F8F820042E2CD8DFE806F0AC
:105FD000390D151D23004FF03F0383F31188BFF3E4
:105FE0006F8FBFF34F8F01BEDBE73C3504EB8505B8
:105FF0006A6817436F60012524E03C3504EB850592
:106000006B6801336B6001251CE03C3504EB8505B2
:106010006F60012516E002291BD03C3504EB850595
:106020006F6001250EE0244B1B68A3B14FF03F03C6
:1060300083F31188BFF36F8FBFF34F8F01BE01252C
:1060400000E00125012908D0FEF79EF82846BDE8AA
:10605000F0810025F6E70125F4E7261D3046FDF71F
:10606000DFFFE06A154B1B68984201D9134B18609B
:1060700000EB80003146124B03EB8000FDF7ACFFD4
:10608000A36A43B14FF03F0383F31188BFF36F8FCF
:10609000BFF34F8F01BEFEF7E1FFE26A094B1B68B9
:1060A000DB6A9A42D0D9084B4FF080521A60BFF396
:1060B0004F8FBFF36F8FC7E7043D00088C3C00088B
:1060C000F03B0008E43B000804ED00E0064B1A68D2
:1060D00013682BB90123036023B9D368186870478C
:1060E0000023F8E7002070470C3D000808B5416028
:1060F000006191420CD8D21A83699A4201D30120DF
:1061000008BD011D094B1868FDF771FF0020F7E776
:106110009A4201D2994206D2011D054B1868FDF73B
:1061200066FF0020ECE70120EAE700BF103D000811
:106130000C3D000830B583B0FEF704F8114B1B6826
:106140001BB1FEF721F803B030BD0F4D2846FDF717
:1061500035FF0E4C2046FDF731FF0D4B1D600D4BFA
:106160001C60002300930C4B0C4A10210A20FEF700
:1061700062FA044B18600028E3D00949FEF7E2FEFA
:10618000DFE700BF303E0008B43D0008C83D00080E
:106190000C3D0008103D0008E03D0008143D0008DB
:1061A000249103102DE9F041074616461D46079C31
:1061B000884641B94FF03F0383F31188BFF36F8FD7
:1061C000BFF34F8F01BE8CB1FFF7B4FF2760C4F857
:1061D0001880E561069B2362201DFDF7FAFE2EB1B3
:1061E00094F8283043F0040384F82830BDE8F081A7
:1061F00010B588B0FFF79EFF134B1B68C3B1002496
:106200000594069407AA06A905A8FDF75DF9059B64
:106210000293069B0193022300932346079A0B499E
:106220000B48FFF7A9F80B4B186008B1012009E0F3
:106230004FF03F0383F31188BFF36F8FBFF34F8F8E
:1062400001BE002008B010BD303E00082C910310A4
:106250009D650010343E00082DE9F04182B00446EF
:10626000884617461D462C20FEF7CCF8064658B146
:10627000002380F828300190089B00932B463A4673
:1062800041462046FFF78EFF304602B0BDE8F08160
:1062900030B585B01C46054698B1174B186848B311
:1062A00000910192029505291DDCFFF7F7FC0228F9
:1062B00011D000231A4669460F480068FEF766FAB7
:1062C00016E04FF03F0383F31188BFF36F8FBFF3E6
:1062D0004F8F01BEE1E70023089A6946064800682F
:1062E000FEF754FA04E0002322466946FEF748FB15
:1062F00005B030BD0020FBE7303E000870B582B02D
:106300001C4B1B681A686AB3DB681E68DC68251DB5
:106310002846FDF785FE236A2046984794F82830E2
:1063200013F0040FECD0A36933449E4207D263609C
:10633000246129460F4B1868FDF759FEE0E700215C
:1063400000910B4632462046FFF7A2FF0028D7D126
:106350004FF03F0383F31188BFF36F8FBFF34F8F6D
:1063600001BECDE7044A106802490860136002B01C
:1063700070BD00BF0C3D0008103D000838B5054653
:10638000FFF730F90446074B1B68834205D800230A
:106390002B60044B1C60204638BDFFF7AFFF012384
:1063A0002B60F6E7DC3D000870B582B006460D466E
:1063B000184B1B68DB68DC68201DFDF731FE94F884
